:020000040800F2
:10000000600E0020CD01000875130008F50C0008F3
:100010007113000875050008DB1E000800000000D1
:10002000000000000000000000000000CD1A0008E1
:100030009507000800000000D5180008E11B000823
:10004000E7010008E7010008E7010008E7010008F0
:10005000E7010008E7010008E7010008E7010008E0
:10006000E7010008E7010008E7010008E7010008D0
:10007000E7010008E7010008E7010008E7010008C0
:10008000E7010008E7010008E7010008E7010008B0
:10009000E7010008E7010008E701000899070008E8
:1000A000E7010008E7010008E7010008E701000890
:1000B000E7010008E7010008E7010008E701000880
:1000C000E7010008E7010008E7010008E701000870
:1000D000E7010008B91C0008E7010008E701000873
:1000E000E7010008E7010008E7010008E701000850
:1000F000E7010008E7010008E7010008E701000840
:10010000E7010008E7010008E7010008E70100082F
:10011000E7010008E7010008E7010008E70100081F
:10012000E7010008E7010008E7010008E70100080F
:1001300000F002F800F03AF80AA090E8000C8244BF
:100140008344AAF10107DA4501D100F02FF8AFF29C
:10015000090EBAE80F0013F0010F18BFFB1A43F0A5
:10016000010318471C3E00003C3E0000103A24BF2B
:1001700078C878C1FAD8520724BF30C830C144BF0C
:1001800004680C607047000000230024002500264E
:10019000103A28BF78C1FBD8520728BF30C148BFEA
:1001A0000B6070471FB51FBD10B510BD00F046F8BD
:1001B0001146FFF7F7FF02F0C3F800F064F803B44C
:1001C000FFF7F2FF03BC01F02DFF00000948804754
:1001D00009480047FEE7FEE7FEE7FEE7FEE7FEE729
:1001E000FEE7FEE7FEE7FEE704480549054A064B41
:1001F00070470000E51B000831010008600800207E
:10020000600E0020600A0020600A002070477047DE
:1002100070477047704710B500F008F8006810BDCF
:1002200010B5044600F002F8046010BD00487047A5
:100230000008002000487047000800207546FFF7BE
:10024000F9FFAE4605006946534620F00700854693
:1002500018B020B5FFF7C8FFBDE820404FF00006FA
:100260004FF000074FF000084FF0000B21F007019E
:10027000AC46ACE8C009ACE8C009ACE8C009ACE8E1
:10028000C0098D4670470446AFF300802046FFF753
:1002900096FF21B1826842F00102826003E0826829
:1002A00022F001028260704710B504461248844271
:1002B00008D10121401501F03BFB0021601501F040
:1002C00037FB17E00D48844208D10121001501F0E9
:1002D0002FFB0021201501F02BFB0BE00848844286
:1002E00008D10121C80301F023FB00214FF4004095
:1002F00001F01EFB10BD0000002401400028014059
:10030000003C0140014600208A6802F004020AB164
:10031000012000E0002070470146C86C80B27047A1
:100320000246002013680B400BB1012000E00020C2
:100330007047014600208A6802F008020AB10120D5
:1003400000E000207047000030B502460020002386
:1003500050680F4C20400D790C6844EA0524204376
:10036000506090680B4C2040D1E902542C434D79E9
:1003700044EA450420439060D06A20F470000C7C6D
:10038000641EE4B2234340EA0350D06230BD000053
:10039000FFFEF0FFFDF7F1FFF0B504460D4600202B
:1003A0000021092D11DDE068A5F10A0606EB4607DC
:1003B000072606FA07F18843A5F10A0606EB46066A
:1003C00003FA06F10843E0600CE0206905EB4507FD
:1003D000072606FA07F1884305EB450603FA06F1FE
:1003E00008432061072A0FDA606B561E06EB86076A
:1003F0001F2606FA07F18843561E06EB860605FA05
:1004000006F10843606322E00D2A0FDA206BD61F45
:1004100006EB86071F2606FA07F18843D61F06EB70
:10042000860605FA06F10843206310E0E06AA2F1AF
:100430000D0606EB86071F2606FA07F18843A2F190
:100440000D0606EB860605FA06F10843E062F0BDEC
:10045000816841F008018160704721B1826842F4EF
:10046000A002826003E0826822F4A00282607047EA
:10047000816841F004018160704700002DE9F0417E
:1004800004460025002C00DC002440F688608442ED
:1004900000DB044640F2447084420DDC204602F04A
:1004A000F1FE07460E4902F00FFE06460D4903F025
:1004B0002EF880F000450FE040F2447084420BDBE0
:1004C000204602F0DFFE0746054902F0FDFD064624
:1004D000044903F027F805462846BDE8F0810000EE
:1004E00000003A430000204100B587B001214FF4DD
:1004F000017001F00DFA4FF4004001F0EDF9022017
:10050000ADF8040000208DF8070001A9174800F09D
:1005100051FA1748FFF7C8FE002002908DF80C0032
:100520008DF80D004FF4602004900020059001200C
:100530008DF8180002A90E48FFF706FF01210C48AC
:10054000FFF7A7FE0A48FFF783FF00BF0848FFF741
:10055000F0FE0028FAD10648FFF78AFF00BF0448E2
:10056000FFF7D0FE0028FAD107B000BD0008014017
:100570000024014000BFFEE739B1084A1268012398
:1005800083401A43054B1A6006E0044A12680123AF
:1005900083409A43014B1A6070470000007400408A
:1005A00030B5002200230A4C226840F6FE748440D5
:1005B000A243D1E900452C438D682C43CD6844EA21
:1005C000050303FA00F42243014C226030BD000011
:1005D0000074004008B500220092054A009200F124
:1005E0000802009B1A440092009A116008BD0000A6
:1005F0000074004000B585B00121042001F088F9A5
:100600000121480701F074F91020ADF81000002016
:100610008DF8130003208DF8120004A90D4800F096
:10062000C9F910210B4800F052FA00200090019007
:1006300002900220039069460020FFF7B1FF0121DC
:100640000020FFF799FF00210846FFF7C3FF05B020
:1006500000BD00000008014001460A2900DC09B97C
:10066000002070472420214A10700B293CD2DFE87B
:1006700001F03B060B10151A1F24292F3500052009
:100680001A4A50710620ECE70920184A50720A20D5
:10069000E7E70D20154A50730E20E2E71120134AB8
:1006A00050741220DDE71520104A50751620D8E747
:1006B00019200E4A50761A20D3E71D200B4A507796
:1006C0001E20CEE72120094A82F821002220C8E717
:1006D0002520064A82F825002620C2E72920034A61
:1006E00082F829002A20BCE70020BAE78C0100200C
:1006F00013B50C460A2C00DC04B91CBD0B2C43D2EC
:10070000DFE804F042060C12181E242A30363C00A2
:1007100001221F49684600F01FF935E005221C49F7
:10072000684600F019F92FE009221949684600F0DF
:1007300013F929E00D221649684600F00DF923E06F
:1007400011221349684600F007F91DE015221049EF
:10075000684600F001F917E019220D49684600F0DB
:10076000FBF811E01D220A49684600F0F5F80BE09D
:1007700021220749684600F0EFF805E025220449E8
:10078000684600F0E9F800BF00BF00BFB5E7000011
:100790008C0100207047000010B5402000F07EF86A
:1007A000A0B10F2001F064FC3348006850B9334811
:1007B000006808B9012000E00020304908600120ED
:1007C0002F490860402000F063F854E0802000F0DA
:1007D00065F8B8B10F2001F04BFC2748001D0068F8
:1007E00060B925486830006808B9012000E00020A1
:1007F000214968310860012022490860802000F00A
:1008000047F838E04FF4807000F048F8B0B10F209E
:1008100001F02EFC18480830006850B917480068ED
:1008200008B9012000E000201449086001201649A1
:1008300008604FF4807000F02BF81CE04FF400705B
:1008400000F02CF8B8B10F2001F012FC0A480C306F
:10085000006860B908486830006808B9012000E005
:1008600000200549683108600120084908604FF4FC
:10087000007000F00DF810BD188121428001224265
:100880008000002084000020880000208C000020D0
:10089000014908607047000014040140014600202F
:1008A0000022074B1B6803EA0102054B14331B6847
:1008B0000B4013B10AB1012000E000207047000096
:1008C00000040140002123498279002A3AD00A46D7
:1008D000126803689A430B461A600A1D126803687F
:1008E0009A430B1D1A60027911440A6803681A437F
:1008F0000A60184A0832126803689A43154B083395
:100900001A601A1D126803689A43124B0C331A605E
:100910004279102A0ED11A1F126803681A430D4B30
:1009200008331A601A1D126803681A43094B0C3306
:100930001A600DE00749427911440A6803681A43B6
:100940000A6005E0027911440A6803689A430A6064
:10095000704700000004014030B503461C788C54F9
:100960005D78541C0D559D78941C0D55DD78D41C74
:100970000D5530BD30B500228B071C0F0F2303FA35
:1009800004F20B4B8C1053F824309343084C8D1019
:1009900044F8253023468C1053F824308C07240F5C
:1009A00000FA04F42343024C8D1044F8253030BD86
:1009B000080001402DE9F0410246002500260020F4
:1009C00000230024002791F803C00CF00F0591F8D4
:1009D00003C00CF0100CBCF1000F03D091F802C062
:1009E0004CEA050591F800C0BCF1000F31D0146845
:1009F00000202BE04FF0010C0CFA00F3B1F800C01E
:100A00000CEA03069E4220D183004FF00F0C0CFA33
:100A100003F7BC4305FA03FC4CEA040491F803C055
:100A2000BCF1280F06D14FF0010C0CFA00FCC2F803
:100A300014C00AE091F803C0BCF1480F05D14FF093
:100A4000010C0CFA00FCC2F810C0401C0828D1D3DD
:100A50001460B1F800C0BCF1FF0F34DD5468002011
:100A60002EE000F1080C4FF0010808FA0CF3B1F881
:100A700000C00CEA03069E4221D183004FF00F0C08
:100A80000CFA03F7BC4305FA03FC4CEA040491F8A2
:100A900003C0BCF1280F05D100F1080C08FA0CF8CE
:100AA000C2F8148091F803C0BCF1480F07D100F1DF
:100AB000080C4FF0010808FA0CF8C2F81080401C2E
:100AC0000828CED35460BDE8F081416170470161D0
:100AD0007047000010B5044607230122214609484B
:100AE000FFF75AFC01210748FFF7B7FC00BF0221BE
:100AF0000448FFF715FC0028F9D00248FFF70CFC6A
:100B000010BD0000002401402DE9F04107460C46CD
:100B10000025002608E03846FFF7DCFF05440520E5
:100B200001F0A6FA701CC6B2A642F4DBB5FBF4F0E5
:100B300080B2BDE8F081000010B5064800680649A3
:100B40000860064801680448006802F0EBFC0449AC
:100B5000086010BD9C000020600000207C00002088
:100B60006400002010B5084800680849086008487B
:100B7000006805490860074801680748006802F0F6
:100B8000D1FC0349086010BD7400002078000020EB
:100B90007000002068000020640000202DE9F0476C
:100BA000002400BF0AE0C4F1C700324951F8200018
:100BB000C4F1C8012F4A42F82100641CC82CF2DBA2
:100BC0002D4800682D4908602D4800682D490860AF
:100BD0002D4801684FF0804002F09CFB81462B4875
:100BE0000168484602F093FC804629480168404667
:100BF00002F0FCF9074627480168384602F08AFBF4
:100C00000546224801681D48006802F083FB8146C2
:100C10001D4801681D48006802F084FC824619489E
:100C20000168504602F076FB074612484168384694
:100C300002F0DCF98046494602F0D8F9064629461A
:100C400002F0D4F90B4908600868134902F02EFC41
:100C500002D8114807490860064908680F4902F0A0
:100C600025FB02D80D480349086002480068BDE82A
:100C7000F0870000DC0400209400002058000020D1
:100C80009800002054000020740000207000002014
:100C9000780000205C00002000002041000020C1FE
:100CA00070B50F4800680F4908600F4AD2F820134A
:100CB000106802F037FC06460C480168304602F026
:100CC00029FB0446074801680948006802F022FB36
:100CD0000546214602F08AF90149086070BD00000E
:100CE000680000206C000020DC04002014000020BC
:100CF0001000002000BFFEE71FB50121082000F012
:100D000007FE0121084600F003FE4FF47070ADF8B5
:100D10000C0048208DF80F0003A92A48FFF74AFE6F
:100D200006210120FFF726FE4020019000208DF8CB
:100D300008000C208DF8090001A8FFF7C3FD07216A
:100D40000120FFF717FE8020019000208DF8080099
:100D50000C208DF8090001A8FFF7B4FD082101203F
:100D6000FFF708FE4FF48070019000208DF8080016
:100D70000C208DF8090001A8FFF7A4FD092101202E
:100D8000FFF7F8FD4FF40070019000208DF8080087
:100D90000C208DF8090001A8FFF794FD17208DF8AD
:100DA000000002208DF801008DF8020001208DF86E
:100DB0000300684600F0E0FA4FF4A06000F014FB76
:100DC0001FBD0000000C01402DE9F04F87B0064622
:100DD0000C461546FDA000680690FD49D1E90023A8
:100DE000D1E90201CDE90223CDE9040100200190FF
:100DF000F8480068012839D10020F649086006A8A3
:100E0000F549096810F80190B9F1490F18D0B9F106
:100E1000500F0BD0B9F1520F1BD10120EF490860E0
:100E20000020EF490860EF49086013E00020EB491B
:100E300008600120EA4908600020EA49086009E0EA
:100E40000020E6490860E64908600120E54908609D
:100E500000E000BF00BFE0480068401CDE490860B9
:100E600008460068032801D100200860DE480068B9
:100E7000012854D10020DC49086002A9DB4A12682D
:100E800051F82200DA4902F045FA074602F0DEF98D
:100E900001900198012807D00A2810D064281AD0A0
:100EA000B0F57A7F2ED122E00120D24908600020DF
:100EB000D1490860D1490860D149086023E0002089
:100EC000CC4908600120CC4908600020CB4908606B
:100ED000CB49086017E00020C6490860C649086091
:100EE0000120C64908600020C54908600BE00020C9
:100EF000C0490860C0490860C04908600120C04975
:100F0000086000E000BF00BFB8480068401CB74957
:100F1000086008460068042801D100200860B9482C
:100F20000068012818D1B84908600020B549086058
:100F3000AA480068012810D1AE48006801280CD1E9
:100F4000304602F027F80746B04AB14B01F034FBB7
:100F5000824601F0FFFA0646BEE0A048006801287C
:100F600010D1A548006801280CD1304602F012F8D3
:100F70008246A84AA84B01F01FFB074601F0EAFA97
:100F80000646A9E09548006801280AD19B480068F8
:100F9000012806D14FF07E51304602F027F8064670
:100FA0009AE08E480068012809D195480068012818
:100FB00005D19A49304602F019F806468CE0884877
:100FC0000068012810D18B48006801280CD1204608
:100FD00001F0E0FF82468D4A8D4B01F0EDFA0746A5
:100FE00001F0B8FA044677E07D480068012810D186
:100FF0008148006801280CD1204601F0CBFF8246D1
:10100000844A854B01F0D8FA074601F0A3FA04465A
:1010100062E07348006801280AD178480068012816
:1010200006D14FF07E51204601F0E0FF044653E028
:101030006B480068012809D171480068012805D172
:101040007649204601F0D2FF044645E06548006835
:10105000012810D16748006801280CD1284601F00A
:1010600099FF0746694A6A4B01F0A6FA824601F0E9
:1010700071FA054630E05B480068012810D15E48EF
:10108000006801280CD1284601F084FF8246614A9D
:10109000614B01F091FA074601F05CFA05461BE04E
:1010A0005048006801280AD154480068012806D138
:1010B0004FF07E51284601F099FF05460CE0494863
:1010C0000068012808D14E480068012804D153491E
:1010D000284601F08BFF054651480068012818D1C9
:1010E0004949086000204E4908603C4800680128D2
:1010F00010D14048006801280CD1304601F04AFF69
:101100000746424A424B01F05BFE824601F022FA5A
:101110000646EAE031480068012810D136480068E8
:1011200001280CD1304601F035FF0746394A3A4BC9
:1011300001F046FE824601F00DFA0646D5E027484A
:10114000006801280AD12D480068012806D14FF017
:101150007E51304602F0E6F90646C6E01F480068B8
:10116000012809D126480068012805D12B493046BD
:1011700002F0D8F90646B8E019480068012810D1F5
:101180001C48006801280CD1204601F003FF0746E7
:101190001E4A1F4B01F014FE824601F0DBF90446A3
:1011A000A3E00F48006801283CD1134800680128DB
:1011B00038D1204601F0EEFE0746164A164B01F0E4
:1011C000FFFD824601F0C6F904468EE05250490008
:1011D000183F000880000020A0000020B800002078
:1011E000BC000020C000002084000020A4000020DB
:1011F0000000C842A8000020AC000020B000002081
:10120000B400002088000020900000207B14AE472E
:10121000E17A843F9A9999999999B93F00002041C0
:101220008C0000203548006801280AD13448006845
:10123000012806D14FF07E51204602F073F9044692
:1012400053E02E480068012809D12E480068012883
:1012500005D12D49204602F065F9044645E02B48AA
:101260000068012810D12A48006801280CD12846BE
:1012700001F090FE0746274A274B01F0A1FD824668
:1012800001F068F9054630E020480068012810D1D7
:101290002248006801280CD1284601F07BFE074651
:1012A0001F4A204B01F08CFD824601F053F90546A0
:1012B0001BE01648006801280AD11148006801287F
:1012C00006D14FF07E51284602F02CF905460CE07D
:1012D0000E480068012808D10A480068012804D196
:1012E0000949284602F01EF905460F4804600F48D8
:1012F00005600F48066007B0BDE8F08FBC00002015
:10130000B0000020B400002000002041C0000020F8
:10131000A80000207B14AE47E17A843FAC00002097
:101320009A9999999999B93F9400002098000020C2
:101330009C00002008B50121182000F0E9FA0120E6
:10134000ADF8000010208DF8030003208DF8020096
:1013500069460548FFF72EFB0120ADF800006946FD
:101360000248FFF727FB08BD00100140000C0140B8
:1013700000BFFEE77047000070B5002100230F2278
:10138000C47804B3154C246804F4E064C4F5E06444
:10139000210AC1F10403CA40447804FA03F18478B5
:1013A0001440214309010E4C0678A155047804F03D
:1013B0001F050124AC4005786D11AD0005F1E02555
:1013C000C5F8004109E0047804F01F050124AC4091
:1013D000044D0678761145F8264070BD0CED00E00E
:1013E00000E400E080E100E002490143024A1160AC
:1013F000704700000000FA050CED00E070B5002415
:1014000019E004F1B001C8B2002100F077F9002121
:10141000022000F073F90021102000F06FF9002580
:1014200005E00121002000F069F9681CC5B2802D9B
:10143000F7DB601CC4B2082CE3DB70BD08B50121EA
:101440001C2000F065FA10208DF8030003208DF8B1
:1014500002004FF47840ADF8000069460448FFF7F9
:10146000A9FA4FF478410248FFF731FB08BD0000AC
:10147000000C014010B5FFF7E1FF4FF480414748F1
:10148000FFF725FB642000F0F3FD4FF48041434853
:10149000FFF71BFB642000F0EBFD4FF480413F4859
:1014A000FFF715FB0021AE2000F028F900210220F3
:1014B00000F024F90021102000F020F90021402044
:1014C00000F01CF90021812000F018F90021CF2044
:1014D00000F014F90021A12000F010F90021C8202B
:1014E00000F00CF90021A62000F008F90021A82046
:1014F00000F004F900213F2000F000F90021D32082
:1015000000F0FCF80021084600F0F8F80021D52092
:1015100000F0F4F80021802000F0F0F80021D9203C
:1015200000F0ECF80021F12000F0E8F80021DA20CA
:1015300000F0E4F80021122000F0E0F80021DB20A8
:1015400000F0DCF80021402000F0D8F80021202035
:1015500000F0D4F80021022000F0D0F800218D2006
:1015600000F0CCF80021142000F0C8F80021A420DD
:1015700000F0C4F80021A62000F0C0F80021AF2040
:1015800000F0BCF80021AF2000F0B8F8FFF736FFFC
:101590000021084600F004F810BD0000000C0140D6
:1015A00070B504460D4605F1B001C8B2002100F047
:1015B000A5F8102141EA1410002100F09FF804F072
:1015C0000F0141F00100002100F098F870BD00000B
:1015D0002DE9F04107460E46904600250024A8F16B
:1015E0002000C5B27F2F02DD0027B01CC6B23146F5
:1015F0003846FFF7D5FF002408E004EB05110F4A39
:10160000505C012100F07AF8601CC4B2082CF4DBB5
:10161000701CC1B23846FFF7C3FF002409E004EB99
:1016200005110831054A505C012100F067F8601C83
:10163000C4B2082CF3DBBDE8F081000026390008B5
:101640002DE9FF5F074691461D460E9E4FF0000AAA
:10165000002433E0281B401EC1B20A2000F01EFF08
:10166000B9FBF0F00A21B0FBF1F201FB1208BAF16C
:10167000000F13D1681EA04210DDB8F1000F0BD18E
:10168000B34606EBDB71491001FB0471C8B220229E
:101690000199FFF79DFF0FE04FF0010AB34606EBFB
:1016A000DB71491001FB0471C8B208F13001CAB204
:1016B0000199FFF78DFF00BF601CC4B2AC42C9DBCB
:1016C000BDE8FF9F2DE9F04104460F461546002670
:1016D0000EE0AA5D39462046FFF77AFF04F10800C4
:1016E000C4B2782C02DD0024B81CC7B2701CC6B28C
:1016F000A85D0028EDD1BDE8F081000070B504467A
:101700000E462EB14FF400611C48FFF7E0F904E0EB
:101710004FF400611948FFF7D8F94FF4805117488A
:10172000FFF7D3F900251BE04FF400511348FFF7F2
:10173000CCF904F0800028B14FF400410F48FFF7C6
:10174000C6F904E04FF400410C48FFF7BEF94FF42E
:1017500000510A48FFF7BBF96006040E681CC5B2C9
:10176000082DE1DB4FF480510448FFF7B0F94FF446
:1017700000610248FFF7ABF970BD0000000C0140AA
:101780002DE9FC5F06460C4615460027B846B946CB
:10179000BA46BB46002001904949304601F0BAFDE7
:1017A000009001F053FD642190FBF1F7444930466D
:1017B00001F0B0FD009001F049FD642190FBF1F2D1
:1017C00001FB12083E49204601F0A4FD009001F003
:1017D0003DFD642190FBF1F93949204601F09AFD65
:1017E000009001F033FD642190FBF1F201FB120A3D
:1017F0003349284601F08EFD009001F027FD642159
:1018000090FBF1FB2E49284601F084FD009001F089
:101810001DFD642190FBF1F201FB1200019029A251
:1018200000210846FFF74EFF28A202210A20FFF7F9
:1018300049FF27A202213C20FFF744FF0C2002238E
:101840003A46002100903220FFF7FAFE2E220021B6
:101850004120FFF7BDFE0C200223424600210090EC
:101860004620FFF7EDFE0C2002234A46042100909B
:101870000A20FFF7E5FE2E2204211920FFF7A8FE1B
:101880000C2002235246042100901E20FFF7D8FEB0
:101890000C2002235A46042100903C20FFF7D0FE82
:1018A0002E2204214B20FFF793FE0C2002230090F0
:1018B00004215020019AFFF7C3FEBDE8FC9F000001
:1018C0000000C842496E7075743A00004B503A00EF
:1018D0004B493A007047000001460020034A506817
:1018E00020F4404008435060704700000010024060
:1018F00029B1064AD2690243044BDA6104E0034A83
:10190000D2698243014BDA61704700000010024047
:1019100029B1064A92690243044B9A6104E0034AE2
:1019200092698243014B9A617047000000100240A7
:1019300029B1064AD2680243044BDA6004E0034A44
:10194000D2688243014BDA60704700000010024009
:1019500030B500210022002400232D4D6D6805F0D4
:101960000C0121B1042905D0082923D105E0294D16
:10197000056022E0274D05601FE0254D6D6805F4E8
:101980007012234D6D6805F48034022505EB9242F8
:101990001CB9214D554305600BE01D4D6D6805F4E4
:1019A00000351DB11C4D5543056002E0194D5543EE
:1019B000056002E0174D056000BF00BF144D6D6863
:1019C00005F0F0010909154D6B5C0568DD404560C7
:1019D0000F4D6D6805F4E061090A104D6B5C4568B8
:1019E000DD4085600A4D6D6805F46051C90A0B4DF4
:1019F0006B5C4568DD40C560054D6D6805F4404190
:101A0000890B074D6B5CC568B5FBF3F5056130BD0F
:101A10000010024000127A0000093D00360000204C
:101A2000460000202DE9F05F83462449584601F026
:101A30003DFD01D8DFF884B02149584601F036FC5D
:101A400001D8DFF87CB01E49584601F02FFD16D8AA
:101A50000021584601F02AFC11D21849584601F0DD
:101A6000C5FA804601F096FA06464FF03332154B20
:101A700001F066F8044600F06DFD82461BE000218F
:101A8000584601F013FD16D80C49584601F00EFCDB
:101A900011D8584601F07EFA80464FF03332094B98
:101AA00001F04EF806460022074B00F085FD044683
:101AB00000F050FD82465046BDE8F09F00002041F6
:101AC000000020C13333C33F0000F83F704710B51A
:101AD00000F002F810BD00000CB50020019000904D
:101AE0003348006840F480303149086000BF304816
:101AF000006800F4003000900198401C01900098AC
:101B000018B90198B0F5A06FF1D12948006800F428
:101B1000003010B10120009001E0002000900098FA
:101B2000012843D12348006840F010002149086093
:101B30000846006820F0030008600846006840F08E
:101B4000020008601A484068194948600846406821
:101B500048600846406840F4806048600846406835
:101B600020F47C1048600846406840F4E810486063
:101B70000846006840F08070086000BF0C480068AC
:101B800000F000700028F9D00948406820F00300F8
:101B9000074948600846406840F00200486000BFBE
:101BA0000348406800F00C000828F9D10CBD000083
:101BB0000010024000200240042808D14FF0E0212C
:101BC000096941F004014FF0E022116107E04FF094
:101BD000E021096921F004014FF0E0221161704712
:101BE0007047000010B51348006840F0010011492B
:101BF000086008464068104908400E494860084699
:101C000000680E4908400B4908600846006820F447
:101C1000802008600846406820F4FE0048604FF4C9
:101C20001F008860FFF753FF4FF000600449086011
:101C300010BD0000001002400000FFF8FFFFF6FE9C
:101C400008ED00E02DE9F041054616480560002446
:101C50000AE0C4F1C700134951F82000C4F1C801DB
:101C6000104A42F82100641CC82CF2DB0D48D0F861
:101C700020130D48006801F04DFB06460B48016833
:101C80000B48006801F046FB0746314601F0AEF90B
:101C9000084908600846006804490860054800686B
:101CA000BDE8F081B80100201400002050000020A1
:101CB000100000204C00002010B540F225511D48B6
:101CC00000F04AF810B31B4800F002F9C4B21A48F9
:101CD000008800F40040C8B91748008800F480402C
:101CE00060B10A2C03D000201349088020E012487C
:101CF000008840F400401049088019E00D2C06D1FE
:101D00000D48008840F480400B49088010E00A48E4
:101D10000088C0F30D0009490C5407480088401C96
:101D20000549088008460088C72801DD0020088092
:101D300010BD00000038014034000020C400002025
:101D400021B1828942F40052828104E082894DF6F9
:101D5000FF731A408281704770B502460024002349
:101D60000025002040F66A16B14200D100BFC1F341
:101D7000421501F01F03012606FA03F3012D02D1DB
:101D80009689334006E0022D02D1168A334001E0E5
:101D9000968A33400C12012606FA04F41688344061
:101DA00013B10CB1012000E0002070BDF0B5034676
:101DB000002400260025002040F66A17B94200D111
:101DC00000BF1846C1F3421401F01F06012707FAAD
:101DD00006F5012C01D10C3004E0022C01D11030A9
:101DE00000E014301AB107682F43076002E007686B
:101DF000AF430760F0BD00002DE9F04786B005460F
:101E00000E460024A24600BFA1460027B08900B1BB
:101E100000BF2F462C8A4CF6FF700440F088044324
:101E20002C82AC894EF6F3100440B0883189084307
:101E3000718908430443AC81AC8A4FF6FF400440EB
:101E4000B0890443AC8201A8FFF782FD1F48874296
:101E500002D1DDF810A001E0DDF80CA0A88900F4A3
:101E6000004040B10AEBCA0000EB0A10316849009B
:101E7000B0FBF1F807E00AEBCA0000EB0A1031688A
:101E80008900B0FBF1F86420B8FBF0F004012009F0
:101E9000642101FB1089A88900F4004040B1322080
:101EA00000EBC900B0FBF1F000F00700044308E0CC
:101EB000322000EB09106421B0FBF1F000F00F00BC
:101EC00004432C8106B0BDE8F087000000380140D3
:101ED00001468888C0F30800704700BFFEE7000095
:101EE0002DE9F04781460F49484601F013FA824632
:101EF00001F050F807464FF066320B4B00F018FC2B
:101F0000054600F09DFD044640F68860844200D3FB
:101F1000044604B90024A1B20020FEF75BFBBDE833
:101F2000F087000000F07F4566660A40490050EAED
:101F3000C12018BF04204A0D18BF40F0010040F234
:101F4000FF72B2EB515F08BF40F00200012808BFEA
:101F5000052070472DE9F0414F1E00EBC7010446F4
:101F6000D1E9000115461E4637F006020DD02A467B
:101F7000334600F0E5FD7F1E04EBC703D3E90023E1
:101F800000F01AFB37F00602F1D1022F25D0042F02
:101F900013D0062F18BFBDE8F0812A46334600F063
:101FA000CFFDD4E90A2300F007FB2A46334600F0B0
:101FB000C7FDD4E9082300F0FFFA2A46334600F0B3
:101FC000BFFDD4E9062300F0F7FA2A46334600F0B5
:101FD000B7FDD4E9042300F0EFFA2A46334600F0B7
:101FE000AFFDD4E9022300F0E7FA2A46334600F0B9
:101FF000A7FDD4E90023BDE8F04100F0DDBA0122DD
:1020000001F037BB40F2013200204FF0E04101F017
:1020100030BB0000024A0020110701F02ABB00007B
:1020200001FDFFFF014600BF7047000010B56FF0D3
:102030000400FFF7C1FD0A4800680A49B0FBF1F04F
:10204000094908700846007800EB4001C1EBC01058
:102050004FF6FF7101EAC0000449088010BD00007E
:102060001800002000127A002C0000202E00002012
:102070000146114A12884A434FF0E0235A61002278
:102080009A611A46126942F001021A6100BF4FF0CC
:10209000E022106900F001021AB100F48032002A37
:1020A000F5D04FF0E022126922F001024FF0E02358
:1020B0001A6100229A6170472E0000202DE9F04D30
:1020C000894BCE0F21F0004784B005460C469F4255
:1020D00030D38648874211D3C7F31300284305D075
:1020E00004B02846BDE8F04DFFF789BF002E1ABFA7
:1020F00000200146284604B0BDE8F08D7C4A284601
:1021000000F01CFE07D20220FEF78AF804B0BDE8FA
:10211000F04DFFF777BF774A774B2846214600F00E
:10212000D3FC07D20220FEF77BF804B0BDE8F04DE7
:10213000FFF770BF7148B84248D27148874215D244
:102140007048784400EBC6002146D0E900232846B9
:1021500000F036FECDE900016B48784400EBC60084
:10216000D0E900ABC6F10100861B26E0674A684B48
:102170002846214600F0E4FC664A7A4402EBC60396
:10218000D3E9002300F018FA00F02AFC064600F01C
:1021900084FC07468846604A604B00F0D1FC2A4622
:1021A000234600F001FECDE900015D4A5D4B384653
:1021B000414600F0C5FC82468B46DDE900015246EF
:1021C0005B4600F0FDFD05460C4618E05648874288
:1021D00014D2564A564B2846214600F0EDF9554E8A
:1021E0000022334600F0AAFD08D204B03346284648
:1021F0002146BDE8F04D002200F0DEB900262A4657
:1022000023461046194600F09BFC804602464A4889
:102210000F460B4605217844FFF79CFE42463B469D
:1022200000F08EFC2A46234600F0BEFD0746884695
:10223000E6B302460B4600204FF0804100F0C0FD9F
:10224000CDE902013A4643462846214600F078FC93
:10225000DDE9022300F06CFA52465B4600F0A4FD73
:10226000DDE9002300F0ACFD0022324B00F09CFDC4
:102270006FF47F729642A2BF01EB065104B0BDE835
:10228000F08D4FF07A5202EB065211442B4A01F0C6
:10229000F0F904460D46FFF749FE042808BFFFF792
:1022A000B9FE204604B02946BDE8F08DFFE70022C4
:1022B0004FF0804300F084FD82460E463A46434686
:1022C0002846214600F03CFC5246334600F030FAE6
:1022D0002A46234600F074FD04B00022BDE8F04D0C
:1022E000144B00F061BD0000422E86400000F07FDC
:1022F000EF39FAFE51302DD5104987C0422ED63F16
:10230000B2A2F03FF21D0000EA1D0000FE822B6524
:102310004715F73FAA1D00000000E0FE422EE63FF1
:10232000763C7935EF39EA3D0000303E9C750088F7
:102330003CE4377E0000F03F3E1D000018FCFFFF2C
:102340001FB54948006880F0004B4848016858466E
:1023500000F0BAFE824600F01DFE0546FFF7AEFE15
:10236000074600F0F7F842490860084601684FF058
:102370007E5001F0D7F805463E480168284600F037
:10238000C9FF3D490860FEF7B7FCFFF74FFE4FF469
:10239000E13000F08FF8FEF7CDFFFEF7A5F8FEF76D
:1023A00029F9FFF767F85DE005210120FEF7ACFB96
:1023B00002900298FEF762F80190019800F0EAFDA1
:1023C00007462E4A2E4B00F0F7F8054600F0C2F8FB
:1023D0002C490860FEF7B0FBFEF762FCFEF7C2FB7B
:1023E000FEF7DCFB03900398FFF72CFC25490860FF
:1023F00008460068FFF716FB00900098FFF770FD95
:10240000012120480068FEF773F902210398FEF7C6
:102410006FF90220FEF720F9814600240DE000BF8D
:102420001948008800F040000028F9D01748005DE6
:102430001549091D0880601CC4B24C45EFDB1448E7
:1024400002681448016814480068FEF7BDFC104893
:1024500002681048016810480068FFF791F90A20E7
:10246000FFF706FEA0E700000000002008000020A3
:10247000100000200C00002014000020B81E85EB86
:1024800051B8BE3F7C000020003801408C01002084
:1024900098000020940000209C00002010B5024607
:1024A000012000E050430B00A1F10104E1B2F9D199
:1024B00010BD000010B586B00446012144F20400AE
:1024C000FFF726FA4FF40070ADF8140003208DF8E2
:1024D000160018208DF8170005A91C48FEF76AFAA7
:1024E0004FF48060ADF8140004208DF8170005A9A2
:1024F0001648FEF75FFA25208DF8000003208DF8BE
:1025000001008DF8020001208DF803006846FEF7F7
:1025100033FF01940020ADF80800ADF80A00ADF8D3
:102520000C00ADF810000C20ADF80E0001A9084811
:10253000FFF762FC012240F225510548FFF736FC07
:1025400001210348FFF7FCFB06B010BD0008014065
:102550000038014021F00042A2F16052B2F5801F24
:1025600001F0004328BFD2F17F6C0BD95FEA001C59
:1025700043EAC20242EB507018BF704728BF20F0F8
:1025800001007047B2F5801FBCBF184670474FEA84
:10259000410C1CF5001F02D2084600F082BF70B546
:1025A00000F078FB00000089FFF7F6BF4FF0004015
:1025B000A0F580007047000010B591EA030F48BFF6
:1025C00083F0004300F10484841A71EB030C05D2FC
:1025D000121943EB0C03001B61EB0C01DFF824E143
:1025E0004FEA1154A4EB135C1EEA430F18BF9EEA96
:1025F000445F73D023EA0E03DCF1200E21EA04517C
:1026000043F4801332D322FA0CFE10EB0E0023FAAF
:102610000CFE41EB0E01CCF1200E03FA0EFE10EB86
:102620000E0051F10001B1F5801FCCF1200E32D225
:1026300001EB045112FA0EF2BDE8104058BF70478A
:10264000401C38BF5FEA420218BF7047002814BF21
:1026500020F0010041F100014FEA410313F5001F92
:1026600038BF7047A1F1C04100F062BB012A43EBC3
:102670000302ACF1200CDCF11F0E32BF4FF0000E54
:1026800023FA0CF310EB030041EB0451B4EB115FA0
:10269000D0D0A1EB045101F5801149085FEA300068
:1026A00001EB04510ED350F1000038BF12FA0EFEB8
:1026B00008D1BDE81040C9E7401C38BF5FEA4202BC
:1026C000CAD1C3E7BDE810404FEA410313F5001F2C
:1026D00038BF7047A1F1C04100F02ABB9EEA445FB9
:1026E00008D011EA5E0FBDE8104004BF01F00041C0
:1026F00000207047BDE8104070B500F0CBFA00BF75
:1027000064FBBE3E0000E0FF02494FF0000000F015
:102710007EBF00BF0000F87F491058BFC1F14041A3
:102720005B1058BFC3F140438B42EFF3008070470A
:102730002DE9C04130B4DFF8A0C23CEA111418BF43
:102740003CEA131400F0EC8081EA03051CEA111442
:1027500044EAD57418BF1CEA131500F0C780A4EB37
:1027600005044FF0004545EAC12145EAC32341EA8B
:10277000505143EA525304F17F74994204F50034F6
:102780004FEAC0204FEAC22208BF904200F09C806E
:102790004FEA13650FF24016765D4FEA134506FBCC
:1027A00005F7C7F1807706FB07F74FEAD737A7FB96
:1027B00003687642C8F58038A7FB06CE38BFA8F17B
:1027C000010807FB08E64FF0000EA6FB028CE6FBB3
:1027D00003CEDCF1000CCEF1004E38BFAEF1010E9D
:1027E000A6FB0C584FF000074FF00005E6FB0E87E4
:1027F000A1FB08C6A0FB07CE16EB0E0645F10005AF
:10280000E1FB076515F1E04E7EBFA4F580345FEA79
:1028100046066D4116F1800745F100054FEA17277E
:102820004FEA066647EA0567A6F1DE46B6F1805F25
:102830004FEA15251FD9384624F0010C05EBC47169
:10284000BCF1FE6F01EB0C1102D8F0BCBDE80081B9
:1028500024425CBF01F5801E9EEAC47F02D4F0BC16
:10286000BDE80081244238D4F0BCA1F1C041BDE8EC
:10287000004100F05DBA4FEAD22242EA43524FEAE9
:10288000D323A7FB02864FEAD02040EA415007FB42
:1028900003661EEA0E0F4FEAD12105FB026658BF00
:1028A000A6EB0056B6EB00564FEA520E4EEAC37E38
:1028B00018EB0E0E56EB530EBDD518EB02085E4119
:1028C0007F1C55F10005B6E74FF480154FF0000767
:1028D0004FF000064FF00008ADE7F0BC4FF00000ED
:1028E00001F1C04101F00041BDE8008111EA0C1F77
:1028F0000CEA131500D00CE013EA0C1F00F0258041
:102900004FF00000F0BC81EA030101F00041BDE896
:102910000081F0BCBDE8004181EA030100F008BA83
:10292000F0BCBDE8004170B500F0B4F9097EFC3E92
:1029300000F007B881EA03014FF0000001F0004108
:10294000704781EA030100F0F3B9F0BCBDE8004133
:102950004FF0000021497047FFFDFBF9F7F5F4F255
:10296000F0EEEDEBE9E8E6E4E3E1E0DEDDDBDAD82A
:10297000D7D5D4D3D1D0CFCDCCCBCAC8C7C6C5C488
:10298000C2C1C0BFBEBDBCBBBAB9B8B7B6B5B4B39F
:10299000B2B1B0AFAEADACABAAA9A8A8A7A6A5A48A
:1029A000A3A3A2A1A09F9F9E9D9C9C9B9A9999984E
:1029B0009797969595949393929191908F8F8E8EF1
:1029C0008D8C8C8B8B8A898988888787868585847E
:1029D00084838382828181800000FF070000F87F6A
:1029E0004FEA41034FEA5353A3F58063D3F11E032B
:1029F000C8BFD3F1210C0CDD4FF0004242EAC122E6
:102A000042EA505232FA03FC8CEAE17CACEBE17012
:102A10007047102BC4BF0020704703F5787CBCF1D1
:102A2000FF3F04D06FF0004282EA2100704770B58A
:102A300000F030F94992248000207047F2E700004E
:102A40004FEA1153A3F58063D3F11E03A8BFD3F15E
:102A5000200C08DB4FF0004242EAC12252EA5052F9
:102A600032FA03F0704709420BD4102BC4BF002088
:102A7000704703F5787CBCF1FF3F05D04FF0FF3085
:102A800070474FF00000704770B500F003F900BFC9
:102A90004992248000207047F0E710F0004248BFC0
:102AA0004042B0FA80F310FA03F10AD0C3F11D03DB
:102AB00003F580634FEA415002EB035202EBD12150
:102AC00070474FF00000704751EA030C17D41CF513
:102AD000801F58BFBCF5801F00F10680994218BFC7
:102AE000704708BF9042704707D711F5801F58BF45
:102AF00013F5801F19D499427047894270471CF51D
:102B0000801F08D5BCF5801FF7D58B4218BF7047D2
:102B100008BF824270474FF4001C1CEB410F38BFC6
:102B20001CEB430F01D28B42704770B500F0B2F836
:102B3000922449004FF000514FF08053FFF7ECBD55
:102B4000DFF848C170B51CEA111E1EBF1CEA131540
:102B50009EEA0C0F95EA0C0F00F06F8081EA0304E7
:102B600023EA4C134EEAD47E21EA4C1141F4801141
:102B700043F48013AE44A1FB024CA0FB0365AEF10D
:102B80007F7E361955EB0C05A1FB034C4CF100037D
:102B9000A0FB021C16EB0C06654153F10003094231
:102BA00018BF46F0010613F4007F0BD14FEA033142
:102BB0004FEA0530340341EA155140EA16506FF0F0
:102BC00003020AE04FEAC3214FEAC520F40241EABA
:102BD000555140EA56506FF0020202EB2E4201EBD3
:102BE000025585EACE710AD05FEA440C18BF24F082
:102BF000004450F1000041F1000120EAD47040F29D
:102C0000FE7C624500D270BDA84214BF4FF08044E4
:102C10004FF04044002E08BF0024BEF1806FA8BFD3
:102C2000A1F1C041BDE8704080F282804FF0000009
:102C300001F1C04101F0004170479EEA0C0F0CEA1F
:102C4000131518BF95EA0C0F06D04FF0000081EA6B
:102C5000030E0EF0004170BD00F01CF88900013E2B
:102C600000F007B800F009B84FEA430C5FEA5C5C7B
:102C700008D081EA030100F05BB84FEA410C5FEA3B
:102C80005C5CF6D14FF00000014970470000FF077F
:102C90000000F87F0EF1020E2EF0030E5EF8046BBA
:102CA000364205D4012A43EB030515F5001F12D85F
:102CB000012841EB010C1CF5001F0CD80ED14FEA86
:102CC000D17C15F5001F0CEB4C0C0CF1020C08BF6D
:102CD0004CEBD37C04E04FF0080C01E04FEAD37CCE
:102CE0000CEB4C0526FA05F606F00706B6F1040CC7
:102CF00006D20EEB860CBDE870404CF0010C60472C
:102D0000DFE80CF0090B02024FF000414FF0000029
:102D1000A1F5002170BD19461046012851EB0104B0
:102D200018BFD4F5001484BF002001F0004170BD2D
:102D30000808A0F500114FEA3101704753EA010C71
:102D400017D41CF5801F58BFBCF5801F00F106800A
:102D50008B4218BF704708BF8242704707D713F5F0
:102D6000801F58BF11F5801F19D48B4270479B42BA
:102D700070471CF5801F08D5BCF5801FF7D5994218
:102D800018BF704708BF904270474FF4001C1CEBFF
:102D9000430F38BF1CEB410F01D2994270470FB46B
:102DA0000CBC03BCFFF7C1BE91EA030F10B581F064
:102DB00000413FF509AC83F0004300F009B8000082
:102DC00010B591EA030F48BF83F000433FF5FCAB19
:102DD000841A71EB030C07D212198CF0004C43EBF0
:102DE0000C03001B61EB0C01DFF8A4E14FEA115466
:102DF000A4EB135C1EEA430F18BF9EEA445F00F089
:102E0000B08023EA6E03524221EA0451C3EB6E0301
:102E100038BF5B1EDCF1200E25D322FA0CFE10EB2E
:102E20000E0043FA0CFE41EB0E01CCF1200E03FA2A
:102E30000EFE10EB0E0051F10001CCF1200E29D452
:102E400012FA0EF201EB0451BDE8104058BF704772
:102E5000401C1CBFB2F1004F704700280CBF491C3A
:102E600020F00100704712EB020E43EB030218BF83
:102E70004FF0010E4EEA4202ACF1200CDCF11E0EC6
:102E800054D943FA0CFE10EB0E0051F1FF31CCF196
:102E90001E0ED5D50EF1010E12FA0EFE404141EB89
:102EA000010101EB445C5FEA5C5C10D910EBDE7061
:102EB00001EB045138BFBEF1004FBDE8104018BF10
:102EC000704700280CBF491C20F00100704730D229
:102ED0004FEAD42C11F5001124F400641BD0B1FA90
:102EE00081F20B3AA41AA41ED2F12003914030FAC9
:102EF00003F31943904001EBCC71002C01EB04511A
:102F0000BDE81040A8BF704701F1C0414FF000007C
:102F100001F000417047B0FA80F310FA03F100D1DC
:102F200010BDE41A173C4805C90AE4E701EB045157
:102F300010BD491001EB0451BDE810404FEA3000CC
:102F400002E04FF0000170474A0008BF0042F8D08D
:102F5000B2F5001F28BF704701F000414FF000009C
:102F600070479EEA445F07D011EA5E0FBDE810404B
:102F700004BF002100207047BDE8104070B5FFF786
:102F800089FE00BF40DFF63E83F0004110467047E7
:102F90000000E0FF43004FEAD30C4FEA3C0C4340F3
:102FA0001FBF40070CF1605113F0FE4F70471CF03B
:102FB000006F03D100200CF0004170470CF000437B
:102FC00043EA507010B540EACC0000F024FA00BF8C
:102FD000000000924FEA0001FFF7AABE4FF0004147
:102FE0004FF00000A1F500217047000090EA010FAA
:102FF00048BF81F0004100F19C82421A3CBF801A18
:1030000089184FEAD0524FF07F4C1CEA410FA2EBD7
:10301000D15318BF9CEA026F00F03B804FF0004C88
:103020004CEA00204CEA012121FA03FC10EB0C0CC5
:103030001ED202F1FF325FEA1C2040EBC25038BFC3
:1030400070471CF07F0F4FEA400C18BFBCF17F4F58
:1030500038BF7047C3F12003994008BF20F001003A
:10306000BCF17F4F38BF7047A0F1C04000F019BAE3
:103070004FEA3C00000A40EBC25028BF1CF0FF0F93
:103080004FEA400CE6D018BFBCF17F4F38BF704705
:10309000EAE79CEA026F05D010EA5C0F08BF00F077
:1030A0000040704710B500F0B6F900BF64FBBE3EAB
:1030B000401058BFC0F14040491058BFC1F14041D5
:1030C0008142EFF3008070474FF47F0C1CEAD0126E
:1030D0001EBF1CEAD11392EA0C0F93EA0C0F00F00A
:1030E000858090EA010F48BF42F4807240F4000CE2
:1030F00041F400002CF07F4120F07F4000B5814278
:10310000A2EB03020FF2081CACEB504EC0F1000022
:103110009EF800E04FEA4E0E00FB0EFC38BF49005F
:103120004FEA2C1C02F5FA020CFB0EF34FEACE1EFE
:103130004FEA112C4FEAC1210EEB635E42EB2242B3
:103140000EFB0CFC4FEA1C5300FB03114FEA112C41
:103150004FEA01310EFB0CFC4FEADC4C00FB0C117A
:10316000C14228BF09184CEB03335DF804EB10EBA8
:10317000410143EBC250B2F57C0F38BF704729D5EF
:1031800012F0F00F1CBF00F1C04000F0004070478B
:10319000008182838485868788898B8C8D8E8F9130
:1031A0009293959697999A9C9D9FA0A2A3A5A7A854
:1031B000AAACAEB0B2B3B5B7B9BCBEC0C2C5C7C980
:1031C000CCCED1D4D7D9DCDFE2E6E9ECF0F3F7FAE4
:1031D000FE0000004FEA400C0CF1807CBCF17E4FF9
:1031E00028BF7047B0F1C04000F05BB990EA010F12
:1031F0000CEAD11348BF42F48072624538BF634580
:1032000007D213F47F0F16D080EA010000F00040CF
:10321000704710B500F0FFF8097EFC3E00F005B8DD
:1032200080EA010000F00040704780EA010000F0F1
:10323000004000F036B912F47F0F04BF0248704717
:1032400080EA010000F02DB90000C07F41000B0EA4
:10325000D3F19E0208D950F400034FEA032323FA66
:1032600002F048BF4042704710B500F0D4F800BFEC
:1032700049922480002070476FF0004282EA2000CB
:1032800070470000B0FA80F310FA03F2C3F19D0317
:103290000AD0D90501EB1220530638BF704700F160
:1032A000010008BF20F001007047000050EA010C47
:1032B00000F113801CF5000F58BFBCF5000F01D4BE
:1032C0008842704707D710F5000F58BF11F5000F5F
:1032D00015D488427047894270471CF5000F04D509
:1032E000BCF5000FF7D5814270474FF0807C1CEB96
:1032F000400F38BF1CEB410F01D28142704710B51F
:1033000000F089F8922449004FF000504FF08051AE
:10331000FFF7CEBE4FF47F0C1CEAD0121EBF1CEA92
:10332000D11392EA0C0F93EA0C0F00F0478090EA59
:10333000010F48BF42F480724FF0004C4CEA00206D
:103340004CEA012102EB0302A0FB0113A2F50002EB
:10335000002918BF43F001035B0028BF4FEA330385
:1033600042EB22425FEA132C4CEBC2502EBFBCEB67
:10337000436FB2F57C0F70474FEA036CBCF1004F0E
:1033800008BF20F00100B2F57C0F38BF70470BD5A5
:1033900082F0FF0212F5803FC8BF704700F1C040C5
:1033A000D8BF00F00040704700F5000C5FEA4C0CFD
:1033B00048BF7047B0F1C04000F073B890EA010F09
:1033C0000CEAD11348BF42F48072624538BF6345AE
:1033D00004D280EA010000F00040704710B500F010
:1033E0001AF800BF8900013E00F007B800F009B8E4
:1033F0005FEA410C5FEA1C6C08D080EA010000F033
:1034000050B85FEA400C5FEA1C6CF6D14FF0004008
:10341000A0F5800070470EF1020E2EF0030E5EF84C
:10342000044B244204D44FEA4102B2F17F4F11D839
:103430004FEA4003B3F17F4F0CD80ED14FEAD07C56
:10344000B2F17F4F0CEB4C0C0CF1020C08BF4CEBB3
:10345000D17C04E04FF0080C01E04FEAD17C0CEB8A
:103460004C0324FA03F404F00704B4F1040C06D26C
:103470000EEB840CBDE810404CF0010C6047DFE817
:103480000CF0070802024FF00040A0F5800010BDCC
:103490000846420018BFD2F1807288BF00F0004099
:1034A00010BDFF2141EAD050C005704751EA000C21
:1034B00000F113801CF5000F58BFBCF5000F01D4BC
:1034C0008142704707D711F5000F58BF10F5000F64
:1034D00015D481427047894270471CF5000F04D50E
:1034E000BCF5000FF7D5884270474FF0807C1CEB8D
:1034F000410F38BF1CEB400F01D28842704780EA71
:10350000010081EA000180EA0100FFF7F8BE80F0C7
:10351000004090EA010F7FF570AD81F0004100F0AE
:1035200008B8000090EA010F48BF81F000413FF564
:1035300064AD421A04D882F00042A0EB02001144AC
:103540004FEAD0524FF07F4C1CEA410FA2EBD1530F
:1035500018BF9CEA026F4AD04FF0004C4CEA0020A2
:103560004CEA012121FA03FCB0EB0C0C0FD412F051
:10357000FE0F36D05FEA4C001DD5001240EBC25062
:1035800038BF70471CF03F0F18BF70470BE0A2F127
:1035900001025FEA1C2040EBC25038BF70471CF0AC
:1035A0007F0F18BF7047C3F12003994014BF401E1E
:1035B00020F00100704780084FEA122308BF7047CF
:1035C000B0FA80FCA2EB0C02CCF1280C60FA0CF0F3
:1035D00093EA122F04BF00EBC25070474FEAC3704A
:1035E0007047130A5FEADC1008BF7047F6E79CEAF1
:1035F000026F04D010EA5C0F08BF0020704710B5BE
:10360000FFF709FF40DFF63E81F0004070470CF005
:103610000F03092B08BF082000F059800A2B0BD09C
:10362000082B18BF704708BF1CF0400F0AD04FF09E
:1036300000004FF0000170471CF0400F18BF4FF022
:10364000004070471CF0100F08D020F0704300F0CD
:103650007F4242EAD3014FEA4370704700F0604076
:1036600021F07F4242EA000201F07F4040EA72709E
:1036700070474FF0FF0C4CF4E06C1CEA11531CBF78
:103680009CEA030C9445C2BFDA4201EB0251704739
:10369000002B0DD0BCF1000F0FD0002A01F000412B
:1036A000A4BF41F0E04141F07F614FF0000070475E
:1036B00001F000414FF00000704750EA01334FF035
:1036C0009B0C18BF4CF0806C7FF41EA870471CF454
:1036D000801F11D01CF4E02F03D06FEACC314900D9
:1036E00070474FF04050EFF3008222F0704242EA00
:1036F000000282F3008870474FF00000704700001E
:10370000000000000000002F00000000070007007C
:1037100000147F147F1400242A7F2A120062640898
:103720001323003649552250000005030000000015
:103730001C224100000041221C000014083E081415
:103740000008083E0808000000A060000008080803
:103750000808000060600000002010080402003E1D
:103760005149453E0000427F4000004261514946B8
:10377000002141454B31001814127F1000274545A8
:103780004539003C4A4949300001710905030036BA
:103790004949493600064949291E000036360000CD
:1037A00000005636000000081422410000141414D2
:1037B00014140000412214080002015109060032CD
:1037C0004959513E007C1211127C007F494949360B
:1037D000003E41414122007F4141221C007F494976
:1037E0004941007F09090901003E4149497A007FAA
:1037F0000808087F0000417F4100002040413F0150
:10380000007F08142241007F40404040007F020CAE
:10381000027F007F0408107F003E4141413E007F4F
:1038200009090906003E4151215E007F0919294618
:103830000046494949310001017F0101003F4040F4
:10384000403F001F2040201F003F4038403F0063A2
:1038500014081463000708700807006151494543C4
:1038600000007F41410000552A552A550000414182
:103870007F0000040201020400404040404000007C
:1038800001020400002054545478007F4844443816
:1038900000384444442000384444487F003854549D
:1038A000541800087E0901020018A4A4A47C007F1B
:1038B000080404780000447D4000004080847D00BE
:1038C000007F102844000000417F4000007C041865
:1038D0000478007C0804047800384444443800FC30
:1038E000242424180018242418FC007C080404084C
:1038F00000485454542000043F444020003C4040C1
:10390000207C001C2040201C003C4030403C0044F7
:1039100028102844001CA0A0A07C004464544C44FF
:10392000141414141414000000000000000000001F
:10393000000000000000000000F80000000000008F
:1039400000333000000000100C06100C06000000D0
:1039500000000000000040C07840C0784000043FF4
:1039600004043F040400007088FC083000000018C4
:1039700020FF211E0000F008F000E01800000021E8
:103980001C031E211E0000F00888700000001E218C
:1039900023241927211010160E000000000000003B
:1039A000000000000000000000E018040200000019
:1039B00000071820400000020418E000000000404A
:1039C000201807000000404080F0804040000202C4
:1039D000010F01020200000000F0000000000101E0
:1039E000011F01010100000000000000000080B084
:1039F0007000000000000000000000000000000156
:103A00000101010101010000000000000000003080
:103A1000300000000000000000008060180400601A
:103A200018060100000000E010080810E000000F78
:103A3000102020100F00001010F8000000000020DF
:103A4000203F202000000070080808887000003027
:103A500028242221300000300888884830000018CF
:103A6000202020110E000000C02010F800000007E8
:103A70000424243F240000F808888808080000195E
:103A8000212020110E0000E0108888180000000F8F
:103A9000112020110E0000380808C8380800000066
:103AA000003F000000000070880808887000001CBB
:103AB000222121221C0000E010080810E000000074
:103AC000312222110F00000000C0C00000000000E1
:103AD0000030300000000000008000000000000006
:103AE00080600000000000008040201008000001FD
:103AF00002040810200040404040404040000404C0
:103B00000404040404000008102040800000002089
:103B1000100804020100007048080808F0000000C6
:103B2000003036010000C030C828E810E000071857
:103B3000272423140B000000C038E0000000203CC4
:103B400023020227382008F8888888700000203F68
:103B5000202020110E00C03008080808380007187F
:103B600020202010080008F808080810E000203F76
:103B7000202020100F0008F88888E8081000203F57
:103B800020202320180008F88888E8081000203F2B
:103B9000200003000000C0300808083800000718A3
:103BA0002020221E020008F808000008F808203F24
:103BB000210101213F20000808F80808000000202A
:103BC000203F2020000000000808F8080800C080FE
:103BD00080807F00000008F888C028180800203F77
:103BE00020012638200008F8080000000000203FCF
:103BF00020202020300008F8F800F8F80800203FC6
:103C0000003F003F200008F830C00008F808203FBF
:103C1000200007183F00E01008080810E0000F100F
:103C2000202020100F0008F808080808F000203FA6
:103C3000210101010000E01008080810E0000F1841
:103C4000242438504F0008F8888888887000203F66
:103C50002000030C30200070880808083800003865
:103C6000202121221C00180808F80808180000006C
:103C7000203F2000000008F808000008F808001F96
:103C8000202020201F000878880000C83808000085
:103C900007380E010000F80800F80008F800033C9F
:103CA0000700073C03000818688080681808203067
:103CB0002C03032C30200838C800C8380800000046
:103CC000203F2000000010080808C83808002038ED
:103CD000262120201800000000FE02020200000041
:103CE000007F40404000000C30C000000000000099
:103CF00000010638C00000020202FE000000004081
:103D000040407F00000000000402020204000000A6
:103D100000000000000000000000000000008080A3
:103D2000808080808080000202040000000000008B
:103D3000000000000000000080808080000000196A
:103D4000242222223F2008F8008080000000003F4B
:103D5000112020110E000000008080800000000E65
:103D6000112020201100000000808088F800000E43
:103D7000112020103F200000808080800000001F64
:103D8000222222221300008080F0888888180020D8
:103D9000203F202000000000808080808000006B99
:103DA00094949493600008F8008080800000203F85
:103DB000210000203F200080989800000000002093
:103DC000203F20200000000000809898000000C0E4
:103DD0008080807F000008F8000080808000203F05
:103DE00024022D302000000808F800000000002008
:103DF000203F202000008080808080808000203F45
:103E000020003F20003F8080008080800000203F15
:103E1000210000203F200000808080800000001FE3
:103E2000202020201F00808000808000000080FF74
:103E3000A12020110E000000008080808000000E74
:103E4000112020A0FF8080808000808080002020C2
:103E50003F2120000100000080808080800000332E
:103E6000242424241900008080E0808000000000C9
:103E7000001F202000008080000000808000001FC4
:103E8000202020103F208080800000808080000162
:103E90000E300806010080800080008080800F3096
:103EA0000C030C300F000080800080808000002018
:103EB000312E0E3120008080800000808080808143
:103EC0008E701806010000808080808080000021B4
:103ED000302C2221300000000000807C0202000013
:103EE0000000003F404000000000FF000000000014
:103EF0000000FF0000000002027C80000000004083
:103F0000403F00000000000601010202040400001E
:103F100000000000000000000AD7233CCDCCCC3DBF
:103F20000000803F00002041000000000000E03F52
:103F3000000000000000E0BF0000E0FE422EE63F6F
:103F40000000E0FE422EE6BF763C7935EF39EA3DCF
:103F5000763C7935EF39EABD3E5555555555C53F47
:103F600093BDBE166CC166BF2CDE25AF6A56113FED
:103F7000F16BD2C541BDBBBED0A4BE726937663EEF
:103F8000A03F000800000020C40000006C010008F1
:103F900064400008C40000209C0D00008801000857
:103FA000CDCC4C3D0A0000000AD7233C0000204144
:103FB000000000000000000000A24A040000000011
:103FC00000000000010203040607080900000000C9
:103FD00000000000000000000000010203040102D4
:103FE0000304060708090204060800000000000098
:103FF00000000000000000000000000000000000C1
:104000000000803F000000000000000000000000F1
:1040100000000000000000000000000000000000A0
:104020000000000000000000000000000000000090
:10403000000000000AD7A33C6F12833A0000803FC3
:104040000000000000000000000000000000000070
:104050000000000000000000000000000000000060
:04406000000000005C
:04000005080001CD21
:00000001FF
